:020000041000EA
:1000000000000220915C00103B2C0010DF2D00103E
:10001000FB380010173A0010633B0010000000008E
:10002000000000000000000000000000AB460010CF
:100030006755001000000000FB580010815D0010A3
:10004000FD5D0010FD5D0010FD5D0010FD5D001008
:10005000FD5D0010FD5D0010FD5D0010FD5D0010F8
:10006000FD5D0010FD5D0010FD5D0010FD5D0010E8
:10007000FD5D0010FD5D0010FD5D0010FD5D0010D8
:10008000FD5D0010FD5D0010FD5D0010FD5D0010C8
:10009000FD5D0010FD5D0010FD5D0010FD5D0010B8
:1000A000FD5D0010FD5D0010FD5D0010FD5D0010A8
:1000B00097460010FD5D0010FD5D00103D460010EC
:1000C000FD5D001047460010FD5D00105B4600100E
:1000D000FD5D0010FD5D0010FD5D0010FD5D001078
:1000E000FD5D0010FD5D0010FD5D0010FD5D001068
:1000F0006F460010FD5D001083460010FD5D00108E
:10010000ED570010F9570010215800102D5800101D
:10011000FD5D0010FD5D0010FD5D0010FD5D001037
:10012000FD5D0010FD5D001041510010FD5D0010EF
:10013000FD5D0010FD5D0010254F00109F4D00106B
:10014000FD5D0010FD5D0010FD5D0010FD5D001007
:10015000FD5D0010FD5D0010FD5D0010FD5D0010F7
:10016000FD5D0010FD5D0010FD5D0010FD5D0010E7
:10017000FD5D0010FD5D0010FD5D0010FD5D0010D7
:1003F000FD5D0010FD5D0010FD5D0010FFFFFFFFC3
:10040000FFFFFFFFFFFFFFFFFFFFFFFFFEFFFFFFFD
:1004100000F5E0700268914203D343681A449142A8
:1004200002D380680028F5D17047DFF86C170868A0
:1004300090B94FF4805048604FF480324FF0FF3055
:10044000C86008610420DFF854378A604861C3F847
:10045000BC01DFF84C0708600120704701F1080378
:1004600013F0070F0EBF0023C3F1080303F00703C7
:100470001944D21A8161C26042F001034B60091D28
:100480004FF0280C41F802C0DFF80C271369C36154
:1004900070472DE9FC4B074601F1080010F0070FEB
:1004A0000FBF8946C0F1080000F0070001EB00090A
:1004B00002F1080111F0070F06D002F10800C0F1A7
:1004C000080000F0070002441546A5EB090009EBFF
:1004D0000306A0EB030B43F00303C9F80430AE425C
:1004E00028BF01F027FE2879C10758BF01F022FE7E
:1004F000BBF1100F38BF01F01DFEB869854208D16D
:10050000F9688B44C7F80CB0BE614BF00100706015
:1005100051E1786985420AD1B9688B44C7F808B0BF
:100520007E614BF00100706046F80BB043E16868F3
:1005300000F00301012940F0AC80C008C000019028
:10054000C0081F2839D8AC68D5F80C800090454504
:1005500008BF01F0EFFDA54208BF01F0EBFD6868A0
:100560000099C008C000B0EBC10F18BF01F0E2FD58
:10057000009907F1280000EBC100844206D03969D8
:100580008C42C0F08180E268AA427DD1A04506D1AC
:1005900000983968012383409943396076E08045AB
:1005A00006D0396988456FD3D8F80800A8426BD1C6
:1005B000C4F80C80C8F8084068E0EC68D5F81880EA
:1005C000AC420CD0A8683969884223D3C268AA42D9
:1005D00004BFA168A9421DD1C460A0601CE005F160
:1005E00014010C6834B905F110010C68A4B101E0E4
:1005F00011460C6804F114021068002802BF04F1CF
:10060000100210680028F3D13869814202D3002219
:100610000A6001E001F08EFDB8F1000F36D0E96903
:1006200007F5987000EB81000268954208D10460DC
:10063000A4B9E8697968012282409143796025E094
:100640003869804508D3D8F81010A94214BFC8F8FB
:100650001440C8F8104001E001F06CFDB4B13969F4
:100660008C4211D3C4F81880286928B1884226BF6B
:100670002061846101F05EFD686938B139698842A2
:1006800002D36061846101E001F054FD01996D18AD
:100690008B4469684908490069604BF0010070604B
:1006A0004FEADB0446F80BB01F2C23D807F12800D3
:1006B00000EBC4084546BBF1100F38BF01F03AFD0E
:1006C000386820FA04F1CA0705D4012101FA04F4BC
:1006D00004433C6007E0D8F80800396988422CBF21
:1006E000054601F027FDC8F80860EE60B560C6F861
:1006F0000C8060E05FEA1B2008BF002123D0B0F52A
:10070000803F28BF1F211ED2A0F58072120C02F07C
:1007100008029040A0F58051090C01F004018840C6
:10072000A0F580431B0CC2F10E0203F00203521A23
:10073000D21A984002EBD032D01D2BFA00F101F012
:10074000010101EB4201F161002307F59872736129
:1007500002EB810033617A6822FA01F3DC0707D4E7
:10076000012303FA01F1114379600660B0611DE0D5
:1007700002681F291DBF4908C1F119010BFA01F1D7
:10078000594600E002465068C008C000584516D0DF
:1007900002F11003C80F03EB80034900186800281A
:1007A000F0D13869834204D31E60B261F660B6604E
:1007B00001E001F0BFFC09F10800BDE8F68B3969E2
:1007C00090688A4228BF8842F3D3C6609660B060C2
:1007D000F2600020B061EEE72DE9FE4F04468B4643
:1007E000A5692E46904699463146FFF711FE0268EC
:1007F000416802EB010AAAF1270111F007000EBFC0
:100800000021C1F1080101F007010AEB0100A0F18C
:100810002F0706F110018F4238BF374607F1180243
:10082000002101920091A8F1280259462046FFF7C5
:1008300015FE07F1080010F0070F18BF01F07AFC51
:100840001B20786007F1080104F5E07090E80C5077
:1008500081E80C50C0F800B0C0F80480C0F80C90DB
:10086000816007220198009900E0001D491C00F1F9
:10087000080353454260F8D30129D8BF01F05AFC60
:10088000B74200F09580BF1B301D321DC159490889
:100890004900D15147F0010070604FEAD70BF75182
:1008A000BBF11F0F21D804EBCB0000F12805A846AF
:1008B000102F38BF01F03EFC206820FA0BF1CA0768
:1008C00005D4012101FA0BF10843206006E0A86875
:1008D000216988422CBF804601F02CFCAE60C8F82C
:1008E0000C60C6F80880F5606FE0380A08BF002188
:1008F00023D0B0F5803F28BF1F211ED2A0F5807203
:10090000120C02F008029040A0F58051090C01F091
:1009100004018840A0F580431B0CC2F10E0203F0D5
:100920000203521AD21A984002EBD032D01D27FA95
:1009300000F101F0010101EB420104EB810200230F
:1009400002F59870F16173613361626822FA01F314
:10095000DB0707D4012303FA01F11143616006604C
:10096000B0611DE002681F291DBF4908C1F11901CE
:1009700007FA01F1394600E002465068C008C0009D
:10098000B84216D002F11003C80F03EB80034900F0
:1009900018680028F0D12069834204D31E60B26138
:1009A000F660B56011E003B0BDE8F04F01F0C2BBE6
:1009B0000BE0216990688A4228BF8842F3D3C66061
:1009C0009560B060F2600020B06103B0BDE8F08FC8
:1009D0002DE9F041704F05463868884608B9FFF7A1
:1009E00024FDB96801EB08002F30491E20EA0101FF
:1009F00088457DD205F5D876B06828B13268891867
:100A00008A4275D2884273D301F0B4FB01001CBF47
:100A10000C6811F1010F6BD03068201805F5D87201
:100A200030605368984238BF18467060A86960BB50
:100A3000286908B1814200D22961316174610020C6
:100A4000F0614FF0FF303A686A62286205F12802CF
:100A50000020D260926002F1080757611761801C84
:100A600010322028F5D34D48854208BFA4F1280252
:100A700028D055F8040CC00805EBC002A2F108000C
:100A80000A19121A283A01461CE005F5E0700246E0
:100A900000E092687AB3136857681F44B942F8D1EE
:100AA000137B1F0727D4AB691768BB4223D3D2F847
:100AB00004C06744BB421ED2A444C2F804C0E86824
:100AC000A96922182846FFF7C9FC1FE08068C0B159
:100AD00003689342FAD1027B130712D402680160C3
:100AE0004368E418446043462846BDE8F041D0E43A
:100AF0000020BDE8F0812A69914238BF29610A19B6
:100B0000E5E7002322462846FFF766FEE8688045B1
:100B1000EED2A0EB0800A969E86001EB0802AA6127
:100B200040F00100506048F00300486001F1080007
:100B3000BDE8F08130B4184B1A6882B94FF4805286
:100B40005A604FF480344FF0FF32DA601A610422A9
:100B5000124D9C605A61C5F8BC21114A1A6011F10E
:100B6000400F17D28269AAB1C368283199420BD2CB
:100B700000F5E0710C68A24203D34D682C44A242F8
:100B800002D389680029F5D1C16999423CBF4FF071
:100B9000FF32C26101F0C6BA90000020A800002018
:100BA0006859883C2DE9F04705460E469146706825
:100BB000C10706EB09083AD4346810F0030F00F0BF
:100BC00034826042296906448E42A144C0F02982E1
:100BD0006869864200F0BC80E4081F2C55D8D6F81E
:100BE0000CA0B768564508BF01F0A4FABE4208BF82
:100BF00001F0A0FA7068C008C000B0EBC40F18BFC5
:100C000001F098FA05F1280000EBC400874205D0F6
:100C100029698F4236D3FA68B24233D1BA4523D11B
:100C20002868012101FA04F420EA04042C602969EF
:100C30008845C0F0F681D8F80440A00700F1608133
:100C4000AA69904540F09780E8684844E860AE6142
:100C500040F0010070606869864240F0E681002142
:100C60006961A960BDE8F087824506D028698245A0
:100C700008D3DAF80810B14204D1C7F80CA0CAF8BA
:100C80000870D4E701F056FAD1E7F468B769B442C6
:100C90000BD0B068884222D3C168B14204BFA268B9
:100CA000B2421CD1C460A0601BE006F114021468BB
:100CB00034B906F1100214689CB101E01A461468B8
:100CC00004F114031868002802BF04F11003186827
:100CD0000028F3D18A4202D30021116001E001F023
:100CE00029FA002FA3D0F16905F5987000EB810077
:100CF0000268964209D10460200011D1F069696848
:100D0000012282409143696091E72869874205D3B7
:100D10003969B14214BF7C613C6101E001F00AFA1B
:100D2000002C84D029698C42ACD3A761306928B1EA
:100D3000884226BF2061846101F0FCF970690028B7
:100D40003FF475AF296988429CD3606184616EE786
:100D500098F8040000F0030003287FF468AFC5F89A
:100D6000089049F00101D8F8040040084000C8F894
:100D7000040071600AE0686980450BD1A9686E6162
:100D80008944C5F8089049F00100706046F8099060
:100D9000BDE8F087E408E400A144E4081F2C3AD839
:100DA000D8F80CA0D8F80870D04508BF01F0C2F9F7
:100DB000B84508BF01F0BEF9D8F80400C008C0006B
:100DC000B0EBC40F18BF01F0B5F905F1280000EB36
:100DD000C400874207D029698F42C0F08380FA6837
:100DE000424540F07F80BA4507D12868012101FAC9
:100DF00004F420EA04042C6076E0824506D02869D9
:100E000082456FD3DAF8081041456BD1C7F80CA0C2
:100E1000CAF8087068E0D8F80C40D8F81870444553
:100E20000CD0D8F80800884222D3C168414504BFDD
:100E3000A26842451CD1C460A0601BE008F1140206
:100E4000146834B908F1100214689CB101E01A4624
:100E5000146804F114031868002802BF04F1100399
:100E600018680028F3D18A4202D30021116001E002
:100E700001F060F9002F37D0D8F81C1005F59870F4
:100E800000EB8100026890450AD10460200012D175
:100E9000D8F81C006968012282409143696023E010
:100EA0002869874205D33969414514BF7C613C619B
:100EB00001E001F03FF9BCB129698C4212D3A7616E
:100EC000D8F8100028B1884226BF2061846101F063
:100ED00031F9D8F8140038B12969884202D3606129
:100EE000846101E001F026F949F00100706046F8E4
:100EF000099069698E420CD1C5F80890BDE8F08769
:100F000064086400C8F8044049F00100706046F8C5
:100F100009904FEAD9071F2F23D805F1280000EBCD
:100F2000C704A046B9F1100F38BF01F003F92868D3
:100F300020FA07F1CA0705D4012101FA07F7074390
:100F40002F6006E0A068296988422CBF804601F026
:100F5000F1F8A660C8F80C60C6F80880F460BDE837
:100F6000F0875FEA192008BF002123D0B0F5803F49
:100F700028BF1F211ED2A0F58072120C02F00802B9
:100F80009040A0F58051090C01F004018840A0F5C3
:100F900080431B0CC2F10E0203F00203521AD21A54
:100FA000984002EBD032D01D29FA00F101F0010186
:100FB00001EB420105F59872002302EB8100F1611B
:100FC000736133616A6822FA01F3DC0707D40123F5
:100FD00003FA01F1114369600660B0611DE0026827
:100FE0001F291DBF4908C1F1190109FA01F149463C
:100FF00000E002465068C008C000484517D002F122
:101000001003C80F03EB8003490018680028F0D1D3
:101010002869834205D31E60B261F660B660BDE800
:10102000F087BDE8F04701F085B8BDE8F087296991
:1010300090688A4228BF8842F3D3C6609660B06049
:10104000F2600020B061BDE8F0872DE9F84F00257F
:101050008946090AC9F1000B08BF002323D0B1F566
:10106000803F28BF1F231ED2A1F58072120C02F010
:1010700008029140A1F580531B0C03F00403994032
:10108000A1F58044240CC2F10E0204F00204D21A2D
:10109000121BA14002EBD132D11D29FA01F303F05A
:1010A000010303EB4203074607F5987858F823003D
:1010B00030B31F2B0FBF4C465C08C4F1190409FA6A
:1010C00004F4AC46594600E064004268D208D200FD
:1010D000A2EB09028A4203D21100054600F06981A1
:1010E000426910304FEAD47B50F82B00002A1CBF15
:1010F000824294460028E7D18B466046B0BBBDBB18
:10110000012202FA03F35B005842796803430B4063
:1011100000F04E81584203405B1E180B00F0100097
:10112000C340590901F00801CB409A0802F00402BB
:10113000D3405C0804F002040818E3401018C3F31D
:10114000400620183044F3401B1858F823000DE0E7
:1011500008464168C908C900A1EB090159453CBFCF
:101160008B46054601690029F2D140690028F0D17B
:10117000002D00F01D81B868A0EB0900834580F0C8
:10118000178139698D42C0F011816868C008C000BC
:1011900009EB0B01884218BF00F0CCFF05EB0906F4
:1011A000B54280F00381EC68D5F818A0AC420CD0B1
:1011B000A8683969884223D3C268AA4204BFA168DB
:1011C000A9421DD1C460A0601CE005F114010C68A7
:1011D00034B905F110010C68A4B101E011460C68A6
:1011E00004F114021068002802BF04F11002106814
:1011F0000028F3D13869814202D300220A6001E05D
:1012000000F098FFBAF1000F36D0E86908EB8000D3
:1012100001688D4209D10460200014D1E869796821
:10122000012282409143796026E03869824508D3E3
:10123000DAF81010A94214BFCAF81440CAF81040D6
:1012400001E000F077FFBCB13869844212D3C4F8E2
:1012500018A0286930B13969884226BF20618461AD
:1012600000F068FF686938B13969884202D360616B
:10127000846101E000F05EFFBBF1100F0CD2D94495
:1012800049F00300291D6860281D51F8092042F02B
:10129000010240F8092088E049F0030068604BF043
:1012A000010070604FEADB0046F80BB01F281DD824
:1012B00007EBC00101F12804396821FA00F2D307D5
:1012C000A34605D4012202FA00F00843386006E084
:1012D000A068396988422CBF834600F02BFFA660C6
:1012E000CBF80C60C6F808B0F4605EE05FEA1B2043
:1012F00008BF002123D0B0F5803F28BF1F211ED298
:10130000A0F58072120C02F008029040A0F5805106
:10131000090C01F004018840A0F580431B0CC2F1C8
:101320000E0203F00203521AD21A984002EBD03296
:10133000D01D2BFA00F101F0010101EB4201F16136
:1013400000227261326108EB81007A6822FA01F4AE
:10135000E30707D4012404FA01F111437960066020
:10136000B0611DE002681F291DBF4908C1F11901C4
:101370000BFA01F1594600E002465068C008C0006F
:10138000584518D002F11003C80F03EB8003490041
:1013900018680028F0D13869834204D31E60B26116
:1013A000F660B66001E000F0C5FE14E100F0C2FE98
:1013B0000EE18B46A2E6396990688A4228BF8842CE
:1013C000F1D3C6609660B060F2600020B061ECE7D7
:1013D0002DE9F84F06468846716848420140491E8B
:1013E000080B00F01000C1404A0902F00802D14089
:1013F0008B0803F00403D9404D0805F002051018CE
:10140000E9401818C1F34004281806F5987A2044DA
:10141000E14009185AF821104868C008C0000D467C
:10142000A0EB080909E001464868C008C000A0EB2D
:10143000080048453CBF81460D4608690028F2D1A6
:1014400049690029F0D130698542C0F0BF806968E0
:10145000C90808EB090BC900594518BF00F06AFE1E
:1014600005EB08008542009080F0B080EF68AC6921
:10147000AF420CD0A8683169884223D3C268AA421F
:1014800004BFB968A9421DD1C760B8601CE005F16E
:1014900014010F6837B905F110010F68A7B101E019
:1014A00011460F6807F114021068002802BF07F107
:1014B000100210680028F3D13069814202D3002263
:1014C0000A6001E000F036FE002C31D0E8690AEB3A
:1014D000800001688D4208D107608FB9E8697168A2
:1014E000012282409143716022E03069844205D339
:1014F0002169A94214BF6761276101E000F01AFE6B
:10150000B7B13069874211D3BC61286930B1316904
:10151000884226BF3861876100F00CFE686938B1E7
:101520003169884202D37861876101E000F002FEF0
:10153000B9F1100F0BD24BF00300291D6860281D74
:1015400051F80B2042F0010240F80B203DE048F03A
:1015500003012A1D696049F0010042F80800009962
:1015600041F80990D6F808804FEAD80BBBF1200F5C
:1015700028BF00F0DFFDB8F1000F22D006EBCB0052
:10158000776900F12804A246B8F1100F38BF00F0C7
:10159000D1FD306820FA0BF1CA0705D4012101FA08
:1015A0000BF10843306006E0A068316988422CBF27
:1015B000824600F0BFFDA760CAF80C70C7F808A00B
:1015C000FC60C6F808900098706104E000F0B2FD7D
:1015D0000020BDE8F28F05F10800BDE8F28F2DE98B
:1015E000FE4F0546AFF30080F52DDFF8B86A80F0B6
:1015F00004810B2D31BF10250B35ED08ED0030684F
:10160000EC08E04010F0030F46D0C04300F00100AA
:10161000041906F1280000EBC408E700D8F80850C8
:101620006868C008C000B84218BF00F083FDD5F854
:101630000890454508BF00F07DFD4D4508BF00F00E
:1016400079FD6868C008C000B84218BF00F072FD9C
:10165000C84507D13068012101FA04F420EA0404E6
:1016600034600DE03069814508D3D9F80C10A942E7
:1016700004D1C8F80890C9F80C8001E000F05AFDC8
:1016800047F00300291D6860281DCA5942F0010275
:10169000C25105F10804F8E0B168A94280F0BE80AB
:1016A000002800F0A1804FF0010808FA04F1490079
:1016B00000FA04F4484201430C4060420440641EB6
:1016C000200B00F01000C440610901F00801CC407B
:1016D000A20802F00402D440630803F002030818D1
:1016E000DC401018C4F3400718183818FC402418C0
:1016F00006F1280000EBC40AE700DAF80890D9F8F0
:101700000400C008C000B84218BF00F013FDD9F8AB
:1017100008B0D14508BF00F00DFDD94508BF00F065
:1017200009FDD9F80400C008C000B84218BF00F095
:1017300001FDDA4506D1306808FA04F420EA040411
:1017400034600DE031698B4508D3DBF80C00484567
:1017500004D1CAF808B0CBF80CA001E000F0EAFC14
:101760007F1B45F0030009F10402C9F8040047F0AB
:101770000101515109EB05020192D751B4684FEABA
:10178000D40ABAF1200F28BF00F0D4FC34B3CDF84E
:1017900000A006F12800756900EBCA0AD346102C98
:1017A00038BF00F0C7FC3168009821FA00F2D30777
:1017B00004D408FA00F00843306007E0DAF80800C3
:1017C000316988422CBF834600F0B4FCCAF8085047
:1017D000CBF80C50C5F808B0C5F80CA0B76009F1FB
:1017E00008040198706150E07068C0B32946304623
:1017F000FFF7EEFD040011D047E015F1400F28BFC0
:101800004FF0FF350AD20B35ED087068ED0028B1B6
:1018100029463046FFF719FC040036D1B068A842CB
:101820001DD3411B726910290AD350197061B16030
:1018300041F001034360415045F0030555600BE062
:101840000021B1607161131D40F003015160111D51
:101850001C5844F001040C5002F1080415E0F06833
:1018600085420DD2401BB169F0604A19B26140F067
:101870000100506045F003054D6001F1080404E0EB
:1018800029463046FFF7A4F80446AFF3008020460F
:10189000FFF79BB8002800D170472DE9F047A0F171
:1018A0000805AFF30080DFF8FC6731698D42C0F0B6
:1018B0005982686800F00302012A00F05382C208CE
:1018C0004FEAC209C20705EB090839D42C6810F0A9
:1018D000030F00F04982604205448D42A144C0F0EC
:1018E00041827069854200F0C680E408202C5ED2F7
:1018F000D5F80CA0AF68554508BF00F01BFCBD42F1
:1019000008BF00F017FC6868C008C000B0EBC40F47
:1019100018BF00F00FFC06F1280000EBC40087425E
:1019200005D031698F423FD3FA68AA423CD1BA450B
:101930002CD13068012101FA04F420EA0404346057
:10194000454580F00F82D8F80440E00740F10A8254
:10195000A10700F16881B069804540F09F80F1687F
:10196000B5618944C6F80C9049F00100686071695E
:101970008D4202D100207061B060F069484580F06E
:10198000F38100213046FFF7D5F8EDE1824506D01E
:101990003069824508D3DAF80810A94204D1C7F8A3
:1019A0000CA0CAF80870CBE700F0C4FBC8E7EC68ED
:1019B000AF69AC420BD0A868884222D3C168A94263
:1019C00004BFA268AA421CD1C460A0601BE005F15C
:1019D0001402146834B905F1100214689CB101E0D6
:1019E0001A46146804F114031868002802BF04F1B1
:1019F000100318680028F3D18A4202D30021116035
:101A000001E000F097FB002F9AD0E96906F5987085
:101A100000EB81000268954209D10460200011D1D9
:101A2000E8697168012282409143716088E73069FA
:101A3000874205D33969A94214BF7C613C6101E04A
:101A400000F078FB002C3FF47BAF31698C42ABD3C4
:101A5000A761286928B1884226BF2061846100F00F
:101A600069FB686900283FF46BAF316988429BD3FA
:101A70006061846164E798F8040000F003000328C3
:101A80007FF45EAFC6F8089049F00101D8F8040071
:101A900040084000C8F8040069600AE070698045A9
:101AA0000AD1B16875618944C6F8089049F001000F
:101AB000686045F8099057E1E408E400A144E408AF
:101AC000202C3AD2D8F80CA0D8F80870D04508BF1E
:101AD00000F030FBB84508BF00F02CFBD8F804003C
:101AE000C008C000B0EBC40F18BF00F023FB06F124
:101AF000280000EBC400874207D031698F42C0F054
:101B00008580FA68424540F08180BA4507D1306847
:101B1000012101FA04F420EA0404346078E08245EB
:101B200006D03069824571D3DAF8081041456DD18D
:101B3000C7F80CA0CAF808706AE0D8F80C40D8F8CA
:101B4000187044450DD0D8F808003169884223D375
:101B5000C268424504BFA16841451DD1C460A06070
:101B60001CE008F114010C6834B908F110010C688C
:101B7000A4B101E011460C6804F1140210680028B9
:101B800002BF04F1100210680028F3D130698142CD
:101B900002D300220A6001E000F0CCFA002F37D017
:101BA000D8F81C1006F5987000EB8100026890458B
:101BB0000AD10460200012D1D8F81C0071680122FB
:101BC00082409143716023E03069874205D33969CF
:101BD000414514BF7C613C6101E000F0ABFABCB14F
:101BE00031698C4212D3A761D8F8100028B188421D
:101BF00026BF2061846100F09DFAD8F8140038B146
:101C00003169884202D36061846101E000F092FA98
:101C100049F00100686045F8099071698D420BD167
:101C2000C6F80890A0E064086400C8F8044049F0D1
:101C30000100686045F809904FEAD907202F22D2A9
:101C400006F1280000EBC704A046B9F1100F38BF19
:101C500000F070FA306820FA07F1CA0705D40121B4
:101C600001FA07F70743376006E0A0683169884248
:101C70002CBF804600F05EFAA560C8F80C50C5F88D
:101C80000880EC6070E05FEA192008BF002123D0D3
:101C9000B0F5803F28BF1F211ED2A0F58072120C24
:101CA00002F008029040A0F58051090C01F00401F7
:101CB0008840A0F580431B0CC2F10E0203F0020322
:101CC000521AD21A984002EBD032D01D29FA00F1F4
:101CD00001F0010101EB420106F59872002302EBCD
:101CE0008100E9616B612B61726822FA01F3DC0704
:101CF00007D4012303FA01F1114371600560A86163
:101D00001DE002681F291DBF4908C1F1190109FA28
:101D100001F1494600E002465068C008C00048454D
:101D200026D002F11003C80F03EB800349001868A6
:101D30000028F0D13069834204D31D60AA61ED60B0
:101D4000AD6001E000F0F6F9306A401E30620BD160
:101D5000D6F8C80100E080680028FCD14FF0FF30C1
:101D6000306201E000F0E6F9AFF30080BDE8F087F3
:101D7000316990688A4228BF8842E3D3C560956084
:101D8000A860EA600020A861DEE72DE9F84F0F4661
:101D900006467B6831690024D808C0008F4281461E
:101DA000C0F07A8103F00305012D00F0758107EB87
:101DB000090A574580F07081DAF804B05FEACB7504
:101DC00040F16A8113F0030F15460FD1E90820296D
:101DD00024BF2A1D9042C0F06181DFF850138A6849
:101DE0005200451BAA42C0F0598153E1A9451CD3BA
:101DF000A9EB0504102CC0F04D8103F001032B4327
:101E000043F0020379197B6044F00302486840F014
:101E1000010048604A6008192246436843F0010304
:101E200043603046FEF7BEFE34E1B269924516D1FA
:101E3000F0684844854280F0318103F00103441B7F
:101E40002B4343F0020378197B6044F001024168A0
:101E500041F0010141604260B061F4601AE17069D3
:101E600082452FD1B0688144A945C0F01781A9EB04
:101E70000501102903F0010312D378191D4345F021
:101E800002057D604218436843F00103436041F05E
:101E900001044460415053685B085B0053600EE0EE
:101EA00049EA030343F00203381D7B603A1D50F8F2
:101EB000091041F0010142F8091000200021706171
:101EC000B160E7E05FEA8B7000F1E8804FEADB0089
:101ED000C2009144A945C0F0E1804FEAD20BA9EBC2
:101EE0000500BBF1200F00903BD2DAF80C40DAF885
:101EF0000880A24508BF00F01DF9C24508BF00F0E8
:101F000019F9DAF80400C008C000B0EBCB0F18BF15
:101F100000F010F906EBCB0000F12801884508D04D
:101F200032699045C0F08980D8F80C10514540F0D6
:101F30008480444506D13068012202FA0BF18843BF
:101F400030607CE000F128018C4205D03069844289
:101F500073D3A168514570D1C8F80C40C4F808800B
:101F60006DE0DAF80C40DAF8188054450CD0DAF855
:101F70000800884222D3C168514504BFA268524577
:101F80001CD1C460A0601BE00AF11402146834B9CB
:101F90000AF1100214689CB101E01A46146804F1B9
:101FA00014031868002802BF04F110031868002801
:101FB000F3D18A4202D30021116001E000F0BAF8A7
:101FC000B8F1000F3BD0DAF81C0006EB800101F5F8
:101FD0009870026892450AD10460200015D1DAF8A1
:101FE0001C007168012282409143716027E03069D2
:101FF000804508D3D8F81010514514BFC8F81440D4
:10200000C8F8104001E000F095F8C4B131698C4285
:1020100013D3C4F81880DAF8100028B1884226BF1C
:102020002061846100F086F8DAF8140038B1316973
:10203000884202D36061846101E000F07BF800987F
:102040001028387900F001000DD249EA000040F074
:10205000020078603A1D381D50F8091041F0010166
:1020600042F8091016E0284340F002007860791920
:10207000486840F001004860009840F00300486064
:1020800000980844426842F0010242603046009ADB
:10209000FEF788FD3C4601E000F04CF82046BDE824
:1020A000F28F0000A800002070B505460E460024FF
:1020B00025B93046FFF793FA044631E016F1400F98
:1020C0002ED20B2E31BF102406F10B04E408E400DD
:1020D000AFF3008001232246A5F108011448FFF761
:1020E00054FE0446AFF300800CB1083418E03046CB
:1020F000FFF775FA040013D055F8042C12F0030F03
:102100000CBF08200420D208D200121AB24288BFA5
:1021100032462946204600F043F82846FFF7BAFB2E
:10212000204670BD30BC00207047000090000020A9
:10213000A8000020012000F095B830B4002513E07D
:1021400050F8042BD30744BFA9F101039A18091FC3
:10215000042942F8045BFAD213468C0744BF158069
:102160009B1CC90748BF1D7050F8041B0029E7D10C
:1021700030BC70470749086808B10020704706481E
:10218000C008C00008600549C908C900091A0160F3
:10219000704700BF800200209702002090060020B8
:1021A00062B38B0708D0521E11F8013B00F8013BC7
:1021B00000F024808B07F6D1830740F0208000BF19
:1021C000103A07D330B4B1E83810103AA0E838100C
:1021D000F9D230BC530724BFB1E80810A0E80810BA
:1021E00044BF51F8043B40F8043BD20724BF31F808
:1021F000022B20F8022B44BF0B7803707047121F8C
:1022000017D35B0009D151F8043B20F8023B1B0CAB
:10221000121F20F8023BF6D20BE051F8043B00F805
:10222000013B1B0A20F8023B1B0C121F00F8013B6C
:10223000F3D238BF121D521E24BF11F8013B00F823
:10224000013BF8D8704703681AB95A1E0260084665
:102250007047197811B94FF0FF307047591C016071
:102260001878704780B5AFF30080024A110018203B
:10227000ABBEFBE726000200F8B505000C0000200D
:102280000020002D01D1002013E0280000F082FC86
:102290000600761C3000216888470400002C01D11C
:1022A000002006E02700320029003800FFF778FF01
:1022B0002000F2BD38B501002820096888470400D5
:1022C000002C05D0282100222500280000F082FCE7
:1022D000200032BD38B50400002025E02568E06804
:1022E000C00505D4A068002802D0A068FFF7F2FF5F
:1022F000E068C00507D42069002804D02069DFF811
:10230000241449688847E068800507D4206A0028BB
:1023100004D0206ADFF80C14496888472000DFF8F1
:102320000414496888472C00002CD7D131BD2E20D9
:1023300070470000F8B5050000200020002D02D0F5
:102340002868002801D100205AE06868002805D0DC
:10235000A8686A68904201D3002051E0B1F1004FB3
:1023600001D300204CE0A868401C411868688842EE
:1023700003D32868A968084442E02869002801D0EE
:1023800000203DE0B1F1804F07D3B1F1004F02D200
:102390007FF0004602E0002032E04E00286A00286C
:1023A0000FD0310028682A6A90470400002C23D1FE
:1023B0002868E969884700206860002028600020BC
:1023C0001EE03000A96988470400002C08D1286865
:1023D000E9698847002068600020286000200FE03D
:1023E000002C06D0AA68521C296827003800FFF785
:1023F000D7FE2868E96988476E602C60A868204489
:10240000F2BD10B504000020002C02D02068002886
:1024100000D107E02068A168084400F0BBFBA16878
:102420004018A06010BDF8B52DED028B8AB00C00ED
:10243000002190ED068B00200020FFF778FF0600BA
:10244000002C01D1002055E053EC182B0020002176
:1024500000F0F4FB02000B000020002100F0C0FCA3
:1024600006D0DFF8B81302A800F0CAFC05001EE091
:1024700053EC182BDFF8A81302A800F0C1FC0500EC
:102480006A46DFF8A01302A800F0DAFC012806D1A2
:10249000DDE9002351EC180B00F0A2FC07D053EC4F
:1024A000182BDFF8841302A800F0AAFC0500281EF0
:1024B0001A2801D300201DE0691C2000FFF73AFF15
:1024C000002801D1002015E000210BE0525C4254AD
:1024D00007E002AA535C3700FFB2BB42F6D12E22BE
:1024E0004254491CA942F4D300224254A0682D183A
:1024F000A56001200AB0BDEC028BF2BDF8B5040066
:10250000080000210021002100210025002801D120
:1025100000208FE0002C0CD10321FFF70BFF0028D7
:1025200001D1002086E0DFF8041300F09DFC0120BB
:1025300080E0270011E03978202900DA6D1D0BE0DA
:1025400039780839022906D9091F012903D9163912
:1025500001D03A39EFD16D1C7F1C39780029EFD1B9
:102560003F1BEF19F91CFFF7E5FE0600002E01D115
:1025700000205FE0002D11D1222030703A00751C40
:1025800021002800FFF70CFE222006EB070148700F
:10259000002006EB0701887001204BE022203070FC
:1025A000751C0BE02278DFF88812280000F028FC68
:1025B0002D1D01E074202870641C6D1C20780028FB
:1025C0002FD02078202808DB2078222805D02078FA
:1025D0005C2802D020782870EEE75C2028706D1C03
:1025E0002078082811D00928E4D00A2813D00C2814
:1025F0000ED00D2812D0222804D05C28D2D15C2025
:102600002870D9E722202870D6E762202870D3E707
:1026100066202870D0E76E202870CDE772202870E1
:10262000CAE7222006EB07014870002006EB0701ED
:1026300088700120F2BD80B50069FFF75FFF02BD21
:102640002DE9F04389B006000F0015000024242175
:102650000022E846404600F0BDFADFF8DC94D9F8E5
:102660000000296888470090E846D9F80000C8F8BB
:102670000400059706A895E80E0080E80E00009873
:1026800000280ED10098002802D000986968884779
:10269000002C02D0200069688847002009B0BDE8FE
:1026A000F0836946300000F03FF80028EAD0684621
:1026B000FFF7A7FEA86800280BD0D8F80810491C1F
:1026C0000098AA6890470400002CDBD000200090FE
:1026D00020E0D8F80800401C296888470400002C36
:1026E000D0D0D8F80400D8F80810491C884202D28B
:1026F000D8F8042002E0D8F80820521C00992600DF
:102700003000FFF74DFD0020D8F808106054009805
:10271000696888472000C1E780B5024A0121FFF7B8
:102720008FFF02BD0000002070B505000C000020E6
:10273000002D01D0002C01D100206DE0287B00F09D
:10274000FF00C0B201281BD0022827D004280AD0DD
:10275000082831D010284FD0202852D0402855D0FA
:1027600080282ED057E005212000FFF7E3FD002848
:1027700001D1002050E0294900F076FB01204BE018
:1027800006212000FFF7D6FD002801D1002043E0FC
:10279000DFF8A81300F068FB01203DE005212000D0
:1027A000FFF7C8FD002801D1002035E0DFF89013C5
:1027B00000F05AFB01202FE021002800FFF733FE34
:1027C0002AE000202869002801D1002024E028699F
:1027D00000F0E0F90600761C31002000FFF7AAFDAA
:1027E0000400002C01D1002016E0296932002000ED
:1027F000FFF7D6FC01200FE021002800FFF71BFFA8
:102800000AE02100280000F015F805E0210028006A
:1028100000F069F800E0002070BD0000A85D001025
:10282000B05D0010EC5D0010B85D0010F05D0010B0
:10283000C05D001070B50D00002100218468002DDE
:1028400001D100204EE001212800FFF773FD002890
:1028500001D1002046E05B210170A868401CA860FF
:10286000E868401CE8600EE02C210170411C68699A
:10287000002802D020200870491C00200870A86899
:102880003618AE602468002C1BD029002000FFF70A
:102890004BFF00280AD02800FFF7B3FD206800286E
:1028A000F0D06869002803D0022602E0002019E079
:1028B0000126711C2800FFF73DFD0028D4D100201F
:1028C00010E002212800FFF735FD002801D100208B
:1028D00008E05D210170401C00210170E868401E85
:1028E000E860012070BD70B50D00002100218468F2
:1028F000002D01D10020B2E06869002801D0022635
:1029000000E00126711C2800FFF714FD002801D10A
:102910000020A4E07B210170411CE868401CE860B5
:102920006869002802D00A200870481CA868361878
:10293000AE6011E02168002902D02C210170401CFA
:102940006969002902D00A210170401C0021017030
:10295000A8683618AE602468002C5CD0686900282E
:1029600014D0E9682800FFF7E5FC002801D0002119
:1029700005E0002073E009220270401C491CEA684F
:102980009142F8D3A968E8684118A9602900206A33
:10299000FFF7B4FD002807D02800FFF732FD686973
:1029A000002803D0022602E0002058E00126310072
:1029B0002800FFF7BFFC00281DD03A210170411C00
:1029C0006869002802D009200870481CA8683618D9
:1029D000AE6029002000FFF7A7FE00280DD02800D8
:1029E000FFF70FFD6869002809D00126206800283C
:1029F00007D0012006E0002031E000202FE0002673
:102A0000F4E700208619711C2800FFF793FC0028CA
:102A100090D1002023E06869002802D0E968491CB1
:102A200000E002212800FFF785FC002801D10020EA
:102A300015E06969002909D0002103E0092202702C
:102A4000401C491CEA68521E9142F7D37D21017057
:102A5000401C00210170E868401EE860012070BD44
:102A600001604860704780B50022002901D000282D
:102A700001D100200CE08268002A02D1816006E0CA
:102A8000126810680028FBD11000FFF7E9FF012051
:102A900002BD70472DE9F0410400080015001F0039
:102AA00000210021002C03D0002801D0002D01D1ED
:102AB000002026E00699002907D0FFF7EAFF06006C
:102AC000D5F80C8058F400780BE03900FFF7D4FB00
:102AD0000600002E01D1002013E0D5F80C8038F458
:102AE0000078E868800505D4286A002802D0286AA2
:102AF000796888472E62C5F80C8029002000FFF70E
:102B0000B2FFBDE8F0817CB504000D00100000F0BC
:102B100019F8060000200090DFF874303200290018
:102B20002000FFF7B7FF002801D0300003E030009D
:102B3000FFF7D0FB002076BDF45D0010C85D0010EB
:102B4000D05D001070B50500DFF844603000FFF77D
:102B5000B1FB0400002C0ED01020E06031002800F2
:102B6000FFF78AFB20612069002804D12000FFF7CD
:102B7000B1FB002000E0200070BD80B5DFF8100040
:102B8000FFF798FB002801D04021C16002BD000082
:102B90000000002000F10103810704D010F8011BA0
:102BA000820781B1FAD10268A2F10131914311F09B
:102BB000803104BF50F8042FF6E709BAB1FA81F169
:102BC00000EBD100401CC01A70470268531C036020
:102BD0001170704762F30F2262F31F42401810F029
:102BE000030308D0C91A1FD3DB0748BF00F8012D23
:102BF00028BF20F8022D130030B4144615461039B2
:102C000028BF20E93C00FAD8490728BF20E90C007A
:102C100048BF40F8042D890028BF20F8022D48BF86
:102C200000F8012D30BC7047C91818BF00F8012DFD
:102C3000CB0728BF00F8012D7047FEE7B0B581EA49
:102C4000030C0CF0004C40F2FF7515EA11541DBF47
:102C500015EA1357AC42AF4239E0E41923EA455371
:102C600043F48013C90241F0004141EA505EC702BB
:102C70001100A7FB020200284FF00000EEFB01202C
:102C80004FF00001E3FB072118BF42F0010240189A
:102C900000214941E3FB0E01A4F580640F0302D239
:102CA00052004041494154F101046CDD470872F182
:102CB000004250F1000051EB0451A1F580115CBFBE
:102CC00041EA0C01B0BD4CEA05510020B0BD05EA57
:102CD0001357AC4214BFAF4241E050EA410E1CBF53
:102CE00052EA430E02E061460020B0BD24423C445B
:102CF0001BD15FEA070EF6D0090302BF0146002090
:102D0000AEF1140EB1FA81F7AEEB070401FA07FE3B
:102D10000C37C7F1200100FA07F7C8404EEA000E51
:102D200023EA455343F48013A2E733F00043B3FA98
:102D300083F704BFB2FA82FE77440B3FE41BB7F17E
:102D4000200E2FBF02FA0EF3BB40C7F1200E22FA6D
:102D50000EFE38BF43EA0E03BA40641C82E750EA15
:102D6000410E14BF52EA430E6FF000014FF40017FA
:102D700017EB430F8ABF194617EB410FB5E74CEA33
:102D800005510020B0BDD4F10104B4F120070FDAE1
:102D9000C4F12007520828BF42F0010210FA07F5DB
:102DA00001FA07F7E1BF2A43E0403843E1400FE072
:102DB000352C98DCC7F1200452EA400220FA07F2D1
:102DC00018BF42F0010231FA07F0A1400A43002186
:102DD00072F1004250F1000051EB0C01B0BDFEE772
:102DE00090420CD141EA030C50EA4C0C07D09942B6
:102DF00005D14FF4001C1CEB410F38BF89427047CE
:102E00000CB430B583B00A4606A9029104460025E9
:102E10000194009502AB01A9084878441E3000F0E7
:102E20002FF8019A157000284EBF04460198041B24
:102E3000204603B030BC5DF80CFB00BF8FFDFFFFE8
:102E40000DB4C0B50A4604A800210190009101AB61
:102E500003A9044878440C3000F098FA06BC5DF8E9
:102E600010FB00BFE3F3FFFF5FEA000C11F8012B3A
:102E700000F8012B12B111F8012BF9E760467047F9
:102E80002DE9F84F92B01546029100211C9ADFF807
:102E900004828DF82F2081469A4608910FF28C46C5
:102EA0004FF0FF370CE025280FD015F8011B0298D2
:102EB000C8470028029000F0D7800898401C08906E
:102EC00028780028EFD10898E6E0002000210022B1
:102ED00005900691079201E041F0010115F8010FFC
:102EE0002028F9D023280CD02B2804D02D2805D059
:102EF000302809D0BAE041F00201EFE741F00401C7
:102F0000ECE741F00801E9E741F01001E6E70A9239
:102F100009E00A98404505DA00EB800402EB440220
:102F2000303A0A926D1C2A78A2F130000A28F0D3B8
:102F300028782E2818BF099725D115F8010F2A28BF
:102F40000AD1DAF80000CAF800006D1C50F8042B12
:102F5000CAF80000099216E02D280CBF6D1C002055
:102F6000002209920AE040B9099A424505DA02EBCB
:102F7000820403EB4403303B09936D1C2B78A3F1CF
:102F800030020A2AEFD3ADF82C103046297800F031
:102F9000A9FC08B115F8010B8DF82E009DF82E0044
:102FA000682804BF2978682903D162208DF82E0093
:102FB0006D1C0CA80490524615F8013B01A9484627
:102FC00000F098F800284FD10A980599079A069CB6
:102FD000401A801A041B9DF82C0041070FD42020B2
:102FE000002C8DF800000ADDA34601236A4601A9E2
:102FF000484600F084F9B8BBBBF1010BF5D1059B45
:103000000CAA01A9484600F07AF968BBDDF81CB0AB
:103010003020BBF1000F8DF8000009DD01236A4666
:1030200001A9484600F06BF9F0B9BBF1010BF5D1ED
:10303000069B039A01A9484600F061F9A0B99DF8E2
:103040002C0041077FF53CAF2020002C8DF80000BC
:103050007FF736AF01236A4601A9484600F04FF9D1
:1030600010B9641EF6D12BE7384615E02A287FF404
:103070004EAFDAF80020CAF8002052F8040BCAF864
:10308000002000280A9003D540420A9041F0040134
:103090006D1C4DE7CBCCCC0C13B0BDE8F08F622893
:1030A0000ED0682819D1002A0A680A60106803D077
:1030B000121D0A6000B217E0121D0A6080B217E00C
:1030C000002A0A680A60106803D0121D0A6040B224
:1030D0000AE0121D0A60C0B20AE0002A0A680A600B
:1030E000106803D0121D0A60C1177047121D0A60D4
:1030F0000021704770B51C460D46252CEE68114620
:1031000000F08480582C37D0632C0ED0642C18BF6C
:10311000692C14D06F2C2FD0702C49D0732C53D025
:10312000752C18BF782C27D076E02869421C2A61BC
:103130000A680A6052F8043B0A60335476E095F856
:103140002A000122FFF7ABFF0028286004D5286978
:10315000411C29612D220DE0288D810704D52869A5
:10316000411C29612B2205E0C0071CD52869411CA0
:1031700029612022325416E095F82A000022FFF738
:103180008EFF286095F8280001070CD5286850B1FB
:1031900044F02001782906D1286930213154401C9F
:1031A000421C2A613454214628693044A86007E053
:1031B0000868086050F8042B08602A60AE60782127
:1031C000284600F035F831E00868086050F8044BF4
:1031D0000860AC603CB900BF56A000F08FFB4FF018
:1031E000FF34201A70BD2E6A002E04D52046FFF74A
:1031F000D1FC044608E032460021204600F09EFB48
:10320000002814BF041B34466C610FE02869411C80
:1032100029612522325409E02969481C28612522A8
:103220007254210002D0431C2B613454002070BD25
:10323000F0B402466F29D46808BF082605D041F0D3
:103240002000782814BF0A26102618251368642940
:1032500018BF6929184602D1002B48BF4042F0B977
:10326000136AE3B9082E39D192F82800010735D541
:1032700030201725E07531E000280ED592F828009F
:1032800000F01400102808D1546A11699069641A7A
:10329000241AE31A012BA8BF9361F0BC7047B0FB5E
:1032A000F6F706FB170030306D1EC3B23A2BA4BFF1
:1032B000A1F1510318186055380003D093686719BD
:1032C000BB42ECD3082E09D192F82800010705D59E
:1032D000605D302802D06D1E30206055C5F11803A6
:1032E000106A5361611983429160C5DA118DC31A66
:1032F0004FF6EF70014093611185F0BC7047F8B54F
:1033000005460E4617461C46002074B117F8011BEF
:103310007068A847706030B1F069401CF06100200F
:10332000641EF3D1F2BD4FF0FF30F2BD686C747AC9
:103330004C0000007072696E74665F733A206261BF
:103340006420257320617267756D656E74000000DE
:1033500003460846C1680269491C521E002A0261E0
:10336000C16003D400680122002118474FF0FF30EC
:103370007047034608461146C268521E11F1010FFC
:10338000C26002D000680022184770472DE9F84F4C
:1033900088B04FF0FF370091B8461B68129DBE4EB3
:1033A00001938DF81E500023039302920FF2EC4913
:1033B0000FF2E04A044602E00298411C0291DDF857
:1033C00008B09BF80000A0F10902052AC0F0CA80ED
:1033D000202800F0C78018B9404500DA4046DAE0FE
:1033E000252805D10BF101010022029105921CE074
:1033F0000398401C0390012200980021A0479BF8ED
:1034000000108842D8D0024669462046FFF7B1FF37
:103410000020E1E70598B04205DA00EB800301EBFC
:10342000430130390591501C0290029A1178A1F1A4
:1034300030000A28EED306975046117800F052FA71
:1034400020B10298401C0290401E00788DF81C00AC
:103450009DF81C00682805D10299087868280CD1CD
:10346000622206E06C2802BF029908786C2804D119
:103470007122491C8DF81C2002910298017848465F
:1034800000F030FAB0B90398401C03900122009874
:103490000021A047A0F109010529F4D32028F2D08A
:1034A0000399491E10F1010F039103D001460098C2
:1034B0000022A04700208DF81D00029801782529E0
:1034C00012D0582935D0632938D0642918BF69290A
:1034D0002FD06F2918BF70292BD0732920D07529C0
:1034E00018BF782925D012E00398401C03900122D0
:1034F00000980021A047252827D00399491E10F1E4
:10350000010F03910AD0014600980022A047002035
:10351000B8F1000F7FF562AF80465FE73846F7E706
:1035200001220CE0002DF3D010F1230FF0D138462A
:1035300031E06946204600F0B1F804E00022694617
:10354000204600F02BF80028ECDDB8F1000F9DF8C4
:103550001D0048BF4FF0000800283FF42DAF08F1D0
:10356000010829E70398401C0390012200980021DC
:10357000A047A0F109010529F4D32028F2D003992E
:10358000491E10F1010F03913FF416AF0146009858
:103590000022A04710E709B0BDE8F08F2DE9F843FD
:1035A0000D468146686900260028144604DC002C7C
:1035B00014BF6FF00040012028616968696051F80C
:1035C000047B696037B94FF0FF343248784400F12A
:1035D000C4000AE0A87FD8B151F8040B6960B0F1CB
:1035E000004F07D34FF0FF34AEA000F087F9201A48
:1035F000BDE8F283A969884288BF0846A86107E050
:1036000007F8018B012068770226A969491EA96184
:103610002869401E2861E968491C002832D4E96005
:10362000012228680021C847804618F1010F2ED0DA
:10363000002C06DDA8F10900052828D3B8F1200FD9
:1036400025D0A8690028DBD14846012642462946F4
:10365000FFF78FFE0CB1022E0DD0022E0FD0F00717
:1036600002D418F1010F03D14FF0FF30BDE8F2830F
:103670000020BDE8F283A86910B100203870012055
:10368000BDE8F2834846E9604FF0FF38DEE7484680
:10369000DCE700BF5C250000CBCCCC0C2DE9F84565
:1036A0000D4688B0804668690028D8BF6FF000409A
:1036B0002861EA464046FFF74BFE2B2818BF2D280D
:1036C00007D18DF8000029464046FFF741FE0DF175
:1036D000010AA96809780022642914BF75290A24FF
:1036E0000DD0692908BF002409D06F2908BF08241C
:1036F00005D070291ABF41F0200178291024302804
:1037000017D129464046FFF723FE40F0200101264D
:10371000C9B278290AD1002C18BF102C13D1294620
:103720004046FFF715FE102400260CE05CB9082483
:1037300009E004B90A24564601461AE02868012225
:103740000021C0470126302840F09480E8682969AC
:10375000401C491E00292961E860EFD54FF0FF3079
:1037600001228BE0E960012228680021C047014660
:10377000012211F1010F00F08580C8B26128A8BFB5
:10378000A1F157030ADA4128A8BFA1F1370305DAEE
:1037900030380A2834BFA1F13003FF23DBB2E0B296
:1037A00083426FD20DF11F00864238BF06F8011B1D
:1037B000E9682869491C401E00282861D2D5404686
:1037C000E9604FF0FF38012742462946FFF7D1FD57
:1037D0003FB96E450ABF18F1010F00204FF0FF30CE
:1037E00054E000203070A9680878642818BF692860
:1037F0000DD122460021684600F00BF92A7F0146D0
:103800000120622A687714D0682A1BD022E0224661
:103810000021684600F0A2F901460120AA686877F5
:103820001078702816D0287F622802D0682809D026
:1038300010E06A686A6052F8040B6A6000280FD0D2
:10384000017015E06A686A6052F8040B6A6038B16A
:1038500001800DE06A686A6052F8040B6A6030B952
:1038600018A000F04BF84FF0FF35281A0EE0016069
:1038700001200BE0324611003FF45DAF30210AF821
:10388000011B58E74046884617469DE709B0BDE84A
:10389000F0850000686C747A4C00000063436E5B36
:1038A000000000007363616E665F733A20626164BA
:1038B0002025632C2025732C206F7220255B20731C
:1038C000697A65007363616E665F733A2062616452
:1038D00020696E746567657220617267756D656ECB
:1038E00074000000C9B202788A421AB11CBF10F8F5
:1038F000012FF9E718BF00207047FEE780B500B937
:1039000006A005490B681BB122220021984701E05F
:10391000FEF710FC222002BD84020020636F6E734C
:10392000747261696E742068616E646C65723A20AD
:10393000626164206D65737361676500C9B2830756
:1039400006D0521E22D310F8013B9942F7D11FE056
:10395000083A13D302F1040241EA012141EA01418C
:1039600050F8043B121F21BF4B40A3F1013C2CEA4D
:10397000030C1CF0803FF3D0C9B2001F083210F8CE
:10398000013B521E28BF91EA030FF8D818BF01204F
:10399000401E70472DE9FC4180460D001C4608BFC3
:1039A0006D46474600E07F1C3878A0F109010529E3
:1039B000F9D32028F7D02D2816BF2B2817F8016B34
:1039C0002B262946384600F027F829688F4204D173
:1039D000C5F800800020BDE8F6812B2E04D1B0F19F
:1039E000004F06D2BDE8F6812D2EFBD1B0F1004F7D
:1039F0000CD9AFF300800CB1012020602D2E14BF34
:103A00006FF000404FF00040BDE8F6814042BDE855
:103A1000F6810023BEE7FEE72DE9F84F84B00BB135
:103A200000241C600446A04601E008F1010898F853
:103A30000000A0F10903052BF7D32028F5D02D288D
:103A400016BF2B2818F8015B2B25002A019103D4FF
:103A5000012A01D0252A03DB002959D00C6057E048
:103A6000002A0CDD102A04BF98F80000302802BF9D
:103A700098F8010040F02000782811D10CE098F867
:103A80000000302818BF0A220AD198F8010040F03F
:103A90002000782803D1102208F1020800E0082253
:103AA000CDF80C8001E008F1010898F800003028FA
:103AB000F9D0074E7E4418364FF0000906F1280071
:103AC000CDF80880CA468DF8000017460CE000BF0C
:103AD000F41E00009DF80010401ACA465FFA80FBF1
:103AE00007FB09B908F1010898F80010A1F141009D
:103AF0001A2838BF20313A4606F12800FFF71EFF8A
:103B00000028E7D10399414504D1019800B1046030
:103B1000002020E00299F05DA8EB0101081A0028BE
:103B200010D406DCB9EB0B0103D3B1FBF7F0504521
:103B300008D0AFF30080049808B1012101604FF074
:103B4000FF3903E02D2D08BFC9F10009019808B124
:103B5000C0F80080484605B0BDE8F08F00BF0023E4
:103B60005AE7FEE7811DDFF8B40401430878C0B2CC
:103B70007047801D50F090500078C0B27047801D93
:103B800050F080500078C0B270478901001D50F09D
:103B9000985001707047801D50F098500078C0B266
:103BA000002801D0012000E00020C0B27047801D35
:103BB00050F094500078C0B2002801D0012000E0FD
:103BC0000020C0B27047801D50F084500078C0B211
:103BD000002801D0012000E00020C0B270472DE98C
:103BE000F04104004FF400752000FFF7BBFF804652
:103BF0002000FFF7BEFF0600601C50F084500778DD
:103C00002000FFF7D4FF5FFA88F8B8F1000F07D063
:103C1000B8F1020F1BD00DD3B8F1030F26D02DE061
:103C2000C0B2002805D1F6B2002E01D1082500E06F
:103C3000012523E0F6B2012E08D1C0B2002805D13B
:103C4000FFB2002F01D1022500E0042516E0F6B2F4
:103C5000002E0AD1FFB2002F06D1C0B2002801D039
:103C6000402502E0102500E0202507E0F6B2002EF6
:103C700003D1C0B2002800D08025FFE7280000B2A1
:103C8000BDE8F0812DE9F04105000E001700002489
:103C90000020E91C51F09C5108702800FFF769FFD3
:103CA000002805D195F8038098F02000E8700124E1
:103CB000287810F03B0050F0040028702800FFF72F
:103CC00058FF0128FAD1E4B2002C01D085F8038016
:103CD0002800FFF747FF0028FAD1E87810F09F008E
:103CE000710111F060010843E870E91CCC48014300
:103CF00008783100C0B2C9B28842F6D13800002835
:103D000000D0B8470020BDE8F0812DE9F041050062
:103D100090461E0000242800FFF72BFF012804D145
:103D2000EF7897F02000E8700124287810F0030065
:103D30005FEAC80818F0380858EA000885F80080DB
:103D4000681C50F088500078C0B2002804D02800C9
:103D5000FFF739FF0028FAD02800FFF70AFF0028F4
:103D6000FAD1E4B2002C00D0EF700699E87810F098
:103D70001F0050EAC6104A0112F060021043E870BA
:103D8000EA1CA748024310780A00C0B2D2B290429F
:103D9000F6D12800FFF7E6FE0028FAD107980100C7
:103DA000002900D080470020BDE8F0812DE9F843CC
:103DB00005000E001700984600240020E91C51F071
:103DC0009C5108702800FFF7D4FE002805D195F813
:103DD000039099F02000E8700124287810F03B004F
:103DE00050F0440028702800FFF7C3FE0128FAD1E4
:103DF000E4B2002C01D085F803903800C0B201284D
:103E000004D14146C9B2280000F0D2F9697811F016
:103E1000FC0117F00100014369702800FFF7AFFEB5
:103E20003900C9B28842F8D1E87810F09F007101DA
:103E300011F060010843E870E91C794801430878F3
:103E40003100C0B2C9B28842F6D12800FFF78AFE1D
:103E50000128FAD108980100002900D080470020ED
:103E6000BDE8F2832DE9F041050017001E00002493
:103E70000020691D51F0985108702800FFF797FE47
:103E80000028FAD10020691C51F0845108702800E4
:103E9000FFF76FFE012805D195F8038098F0200008
:103EA000E8700124287810F00300FF0017F03807AD
:103EB000074357F080072F702800FFF75AFE0028AD
:103EC000FAD1E4B2002C01D085F80380681C50F0D0
:103ED00088500078C0B2002804D02800FFF773FE95
:103EE0000028FAD00699E87810F01F0050EAC610B2
:103EF0004A0112F060021043E870EA1C484802438D
:103F000010780A00C0B2D2B29042F6D12800FFF772
:103F100029FE0228FAD107980100002900D0804725
:103F20000020BDE8F08138B5040015002800C0B2BB
:103F3000012803D1C9B2200000F03AF9617811F0EC
:103F4000FE0115F00100014351F0020161702000F3
:103F5000FFF715FE2900C9B28842F8D1002032BD12
:103F600080B50222431C53F084531A70C9B200F08A
:103F700091F8002002BD70B504000E001D00002065
:103F8000611C51F08451087080202649214308703B
:103F90002000FFF7E7FD0228FAD13100C9B2200066
:103FA00000F078F800212000FFF7EFFD0020611DF0
:103FB00051F0985108702000FFF7F9FD0028FAD160
:103FC0000498217911F0F80115F007050D432571CA
:103FD000617911F0E00110F01F000843607140208A
:103FE000611D51F0985108702000FFF7E0FD012895
:103FF000FAD12000FFF7CFFD0028FAD0002070BDD5
:1040000010B5040000200749214308702000FFF785
:10401000A9FD0328FAD1002010BD000000001011F6
:104020000000901200001013811DDFF818030143F7
:104030000878C0B27047401C50F080500170704743
:10404000801D50F080500078C0B27047801D50F045
:1040500098500078C0B2002801D0012000E0002074
:10406000C0B27047801D50F094500078C0B2002854
:1040700001D0012000E00020C0B27047801D50F048
:1040800084500078C0B2002801D0012000E0002058
:10409000C0B2704710B50400601C50F08850007822
:1040A000C0B2002804D02000FFF7E8FF0028FAD0B3
:1040B00010BDDFF8940200687047D140DBB2002BDE
:1040C00013D0D2B2002A052A04D9921F04D0521E5E
:1040D00006D009E0490908E01420B1FBF0F104E042
:1040E0000C20B1FBF0F100E00021080070471CB586
:1040F000040054F088500078C0B2002814D1200089
:10410000FFF7D7FF010054F08D500278631CDFF8F1
:104110003C0203431B780020C0B20090DBB2D2B255
:104120002000FFF7CAFF02E0DFF82402006816BD96
:1041300010B41000C0B2002805D048F2010081423E
:104140000AD3002012E047F61220081A41F68664CE
:10415000A04201D3002009E0DFF8F801DBB200EB58
:104160008300D2B230F812004143080010BC7047FF
:1041700010B504002000FFF775FF002801D00020D3
:1041800015E02000FFF7B3FF0100002901D1002056
:104190000DE0E01C50F09C500278E31CDFF8B80101
:1041A00003431B78DBB2D2B22000FFF7C1FF10BD82
:1041B00038B504000D0014F1080050F08550007867
:1041C0002900C0B2C9B2884229D0601C50F080508A
:1041D0000078C0B2002808D1207A10F0D0006D001D
:1041E00015F00E050543257219E000212000FFF7A8
:1041F00022FF2000FFF724FF0028FAD1207A10F0D8
:10420000D0006D0015F00E05054325720121200038
:10421000FFF711FF2000FFF713FF0128FAD131BD8E
:1042200080B5FFF746FF02BD10B50400A01D50F099
:1042300094500078C0B2002808D1201D50F098504A
:104240000078C0B2002801D1002012E02000FFF762
:10425000E7FF211D51F081510978491CC9B2B0FB1B
:10426000F1F0611D51F0825109781031C9B2484313
:10427000400810BD10B50400607910F0E00012F0A5
:104280001F0202436271207910F0D80050EA4310F7
:1042900011F00701014351F0400121712000FFF7A7
:1042A000D5FE0028FAD010BD010051F084500078EE
:1042B000C0B2002801D1002010E0481C50F080500E
:1042C0000078C0B2002802D12148006806E02348E7
:1042D0000068083151F085510978C840704710B521
:1042E00004002000FFF7A0FEC0B2002808D002287A
:1042F0000ED009D303280FD12000FFF795FF0CE063
:104300002000FFF735FF08E02000FFF7CDFF04E0B5
:104310002000FFF7CEFE00E0002010BD10B444786E
:1043200014F0C304090111F030012143D20012F04E
:10433000080211439B0013F004031943417010BCA1
:1043400070470000000010118400002000001012CF
:1043500014000020605D001000009012100000208A
:10436000012210F01F018A40DFF8701240B24009AC
:1043700041F82020704730B40200D2B2002A08D0A1
:10438000022A24D014D3042A3CD02FD3052A45D0A6
:1043900050E0DFF84C22136853F4806313604FF44D
:1043A0004072DFF840321A60DFF83C321A6041E0B8
:1043B000DFF82C22136853F4006313604FF440724B
:1043C000DFF828321A60DFF828321A6032E0DFF8AE
:1043D0001022136853F4805313604FF44072DFF8D7
:1043E00014321A60DFF810321A6023E07C4A136836
:1043F00053F4005313604FF44072804B1A60804BAB
:104400001A6017E07F4A136853F4806313604FF417
:1044100000627D4B1A607D4B1A600BE0794A13688D
:1044200053F4006313604FF44072794B1A60794B78
:104430001A60FFE7784B0200D2B253F82220D278FC
:1044400012F0F3020400E4B253F82440E2700200D8
:10445000D2B253F8222092780400E4B253F82440F8
:10446000A2706E4A14686E4A54430A01B4FBF2F219
:104470001500ADB2B5F5005F01DB41F6FF72B4FB8C
:10448000F1F4110089B2B4EB01140100C9B253F880
:1044900021100D7815F0E005C2F304210D43010051
:1044A000C9B253F821100D700100C9B253F82110A0
:1044B0004A700100C9B253F82110897A11F0E00165
:1044C00014F01F040C430100C9B253F821108C7280
:1044D0000100C9B253F82110097C51F08801020093
:1044E000D2B253F8222011740100C9B253F821103E
:1044F000C97851F00C01C0B253F82000C17030BC33
:10450000704745490200D2B251F822201279920632
:10451000F7D5C0B251F82000C07970473E4A030079
:10452000DBB252F823301B791B06F7D5C0B252F824
:104530002000C171704738B504000D0005E02978EE
:104540002000C0B2FFF7EAFF6D1C28780028F6D1E2
:1045500031BD80B5C0B2002808D0022818D00ED3D3
:10456000042827D01DD305282DD035E02D4801780B
:1045700051F0200101701F20FFF7F2FE2CE02A48C5
:10458000017851F0200101702120FFF7E9FE23E0BE
:104590002648017851F0200101702320FFF7E0FE4A
:1045A0001AE02348017851F0200101702C20FFF718
:1045B000D7FE11E01F48017851F0200101702E2034
:1045C000FFF7CEFE08E01C48017851F02001017091
:1045D0001C20FFF7C5FEFFE701BD000000E100E081
:1045E0003480044018C004401CC004400CB0044097
:1045F00010B0044008C004400CC0044040B0044067
:1046000044B004402880044064D0044060D004409A
:1046100020C0044024C00440180000208C0000206A
:1046200040420F0003A0064003B0064003C006400E
:1046300003D0064003A00E4003B00E4080B500201A
:10464000FFF75FFF01BD80B50120FFF75AFF0100B2
:10465000C9B20120FFF762FF01BD80B50220FFF75C
:1046600050FF0100C9B20220FFF758FF01BD80B51D
:104670000320FFF746FF0100C9B20320FFF74EFFFA
:1046800001BD80B50420FFF73CFF0100C9B2052041
:10469000FFF744FF01BD80B50420FFF732FF0100A2
:1046A000C9B20520FFF73AFF01BDFEE730B40400B0
:1046B000DFF8C452AC4200F08880DFF8C052AC4250
:1046C00008D0DFF8BC52AC424BD0DFF8B852AC4255
:1046D00061D095E0DFF8B042256855F0807525601F
:1046E0000C00E4B2002C0BD0022C15D00ED3042CFD
:1046F0001ED017D3062C27D020D3072C2AD02FE08A
:104700004FF48064DFF884522C6079E04FF44074F9
:10471000DFF87C522C60F8E74FF48064DFF87452C5
:104720002C60F2E74FF44074DFF86C522C60ECE739
:104730004FF44074DFF864522C60E6E74FF4806475
:10474000DFF85C522C60E0E74FF48064DFF85452ED
:104750002C60DAE74FF48064DFF84C522C60D4E729
:104760006DE0DFF82442256855F0007525600C00E7
:10477000E4B2002C02D0012C06D00BE04FF44074C0
:10478000DFF828522C603BE04FF44074DFF82052F1
:104790002C60F8E753E0DFF8F041256855F08065BC
:1047A00025600C00E4B2002C02D0012C06D00BE0F6
:1047B0004FF44074DFF8FC512C6021E04FF440745A
:1047C000DFF8F4512C60F8E739E0DFF8BC412568E8
:1047D00055F0400525600C00E4B2002C0BD0022CF3
:1047E00035D02ED3042C3ED037D3062C47D040D31F
:1047F000072C4AD04FE04FF4C064DFF8C4512C605E
:104800000C00E4B200EBC404E46834F004040D00CE
:10481000EDB200EBC505EC6028240D00EDB200EB15
:10482000C505EC600F24046092B282600022C2646D
:104830009BB2C9B200EBC1010B610021416030BCE9
:1048400070474FF4C064DFF87C512C60D8E74FF418
:10485000C064DFF874512C60D2E74FF4C064DFF815
:104860006C512C60CCE74FF4C064DFF864512C60CD
:10487000C6E74FF4C064DFF85C512C60C0E74FF42A
:104880004074DFF854512C60BAE74FF44074DFF8FD
:104890004C512C60B4E7D2E70100DFF8DC209142F4
:1048A00026D0DFF8DC20914204D0DFF8D8209142F6
:1048B0000FD03FE0DFF8D0100A6852F000720A60B3
:1048C0004FF4E061DFF818211160DFF81821116062
:1048D00030E0DFF8B4100A6852F080620A604FF4EA
:1048E000A061DFF804211160DFF80021116021E0F0
:1048F000DFF8C8100A6852F040020A604FF4C06145
:10490000DFF8BC201160DFF8BC201160DFF8B820B0
:104910001160DFF8B8201160DFF8B4201160DFF813
:10492000B42011604FF48061DFF8AC201160DFF833
:10493000AC201160416D51F004014165D0F8801048
:1049400051F00801C0F880100021C1644FF6FF71DA
:104950008160D0F8801051F00101C0F88010416DE5
:1049600051F0010141650021416070470100486834
:1049700000224A6000B2704700600240008003409D
:104980000090034000A003403C80044004B0044079
:1049900064D004400CB00440189004401C900440C3
:1049A00014C0044018C004401CC0044020900440BF
:1049B00024900440289004402C900440308004400F
:1049C00014D0044018D004401CD0044020D004402F
:1049D00024D0044028D0044028B004402CB0044027
:1049E000309004403490044058D004405CD00440DF
:1049F0008901DFF8F422104301707047811DDFF850
:104A0000EC0201430878C0B27047490050F084506E
:104A10000170704750F0805001707047401C50F09A
:104A2000805001707047801D50F080500078C0B2F7
:104A300070478901001D50F0985001707047801D2B
:104A400050F084500078C0B2002801D0012000E06E
:104A50000020C0B27047C90150F09C5001707047EF
:104A6000490150F09450017070478901821CDFF8B1
:104A7000780202431170704747F2305100E000BFE6
:104A80000800411E0028FAD1704738B504000025FF
:104A9000200000B2B0F5807F09DB4FF443729449E7
:104AA000964800F035F9AFF3008000E06D1C20005F
:104AB00000B2E840C007F9D52800C0B232BD2DE9E8
:104AC000FE430400002600278A4D2800FFF787F8E0
:104AD00000B2FFF7DAFF8146B4F90000FFF7D5FF17
:104AE000804687485FFA89F900EBC9004146C9B2A0
:104AF00010F801904846C0B200280BD0022830D0F0
:104B00001AD3042821D00BD3062836D02FD3072858
:104B100050D053E0784AE1792800FFF7B3F84DE030
:104B200075480190E0790090237AA2793100C9B2EA
:104B30002800FFF7EAF841E000200090637922792D
:104B4000E1792800FFF732F938E000200190E079A0
:104B50000090237AA2793100C9B22800FFF782F9C8
:104B60002CE0227961792800FFF7DDF926E0310099
:104B7000C9B22800FFF7F4F920E04046C0B2072888
:104B800003D04046C0B206280AD1207B0090E37AC9
:104B90003A00D2B23100C9B22800FFF7ECF908E0C0
:104BA00002212800FFF724FF2800FFF727FF022833
:104BB000FAD103E02800FFF723FAFFE74846414611
:104BC000C0B2C9B288428CD1A1782800FFF71DFF7E
:104BD000E1782800FFF71EFFA078002811D0207987
:104BE000012803D161792800FFF7E2FA2179280032
:104BF000FFF714FF2800FFF716FF2179C0B28142AA
:104C0000F8D1607A002806D0A37A227BE17A2800C6
:104C1000FFF730FB03E000212800FFF70AFF002028
:104C2000BDE8FE8338B504000D00002C07D040F22B
:104C3000FE322F49334800F06BF8AFF300800020BC
:104C4000A87A01281FD12879002801D0082100E086
:104C500000216879002801D0042200E00022A87910
:104C6000002801D0022300E00023E879002801D0C9
:104C7000012000E00020114319430143224850F86D
:104C8000240000F057F815F10B01200000F017F890
:104C9000184CAB7A2A7A697A2000FFF73FFBA87A92
:104CA000012807D1E87A012804D12000FFF7C7FEC8
:104CB0000028FAD0286815490860002032BD70B578
:104CC00004000D00104EA97856F82400FFF7CDFE21
:104CD000297856F82400FFF7BEFE697856F82400BC
:104CE000FFF7BEFE70BD00000000101300001011A1
:104CF000605A001000400640794A00103C5D0010E8
:104D0000EC5A0010505D0010F85D00108400002087
:104D100000B583B00091019202906A4604491820C0
:104D2000ABBE002801D1FDF705FA03B000BD00BFFE
:104D300010100200027812F0F00211430170704767
:104D400010B5A84C012300220E21200000F060F9CC
:104D500009220E21200000F09DF9012300220D21DF
:104D6000200000F055F909220D21200000F092F9F1
:104D7000012300220C21200000F04AF909220C2115
:104D8000200000F087F9012300220B21200000F011
:104D90003FF909220B21200000F07CF910BD924858
:104DA0000168490308D5016851F4802101608F48EA
:104DB0000168491C0160B4E00168C90608D50168B2
:104DC00051F01001016089484168491C4160A8E028
:104DD0000168090608D5016851F080010160834827
:104DE0008168491C81609CE00168490608D501681A
:104DF00051F0400101607D48C168491CC16090E0EC
:104E00000168890608D5016851F0200101607748E2
:104E10000169491C016184E00168090708D501683E
:104E200051F00801016071484169491C416178E015
:104E30000168C90708D5016851F0010101606B489C
:104E40008169491C81616CE00168890708D50168A6
:104E500051F0020101606548C169491CC16160E00F
:104E60000168490708D5016851F0040101605F48F5
:104E7000016A491C016254E00168090508D501680E
:104E800051F4006101605948416A491C416248E09F
:104E90000168890508D5016851F400710160534823
:104EA000816A491C81623CE00168C90508D5016836
:104EB00051F4807101604D48C16A491CC16230E003
:104EC0000168490508D5016851F4806101604748CF
:104ED000016B491C016324E00168890308D501685E
:104EE00051F4003101604148416B491C416318E0B5
:104EF0000168C90308D5016851F4803101603B485D
:104F0000816B491C81630CE00168C90408D5016804
:104F100051F4805101603548C16B491CC16300E008
:104F20000068704738B5324C2068400418D52068B6
:104F300050F480402060012000F0E6F82D48006821
:104F4000C0F3803000280BD02B4D286850F0005063
:104F50002860012000F0D8F8286830F00050286060
:104F60002068800418D5206850F40050206001208B
:104F700000F0CAF81F480068C0F3403000280BD08A
:104F80001D4D286850F080402860012000F0BCF8DA
:104F9000286830F0804028602068C00403D520686D
:104FA00050F4805020602068000518D5206850F427
:104FB00000602060012000F0A7F80E480068C0F3F0
:104FC000C02000280BD00C4D286850F400502860F9
:104FD000012000F099F8286830F40050286020681B
:104FE00031BD0000C0F00F40A0D0044040000020C0
:104FF000A0C00440D0F00F4000F10F40012210F09B
:105000001F018A40384940B2400941F820207047CA
:1050100070B4364C256855F4785525600500344E3B
:10502000AD1B08D0403D08D0403D08D0403D08D0E1
:10503000403D08D009E02F4C07E02F4C05E02F4CF5
:1050400003E02F4C01E02F4CFFE74FF4807544F84C
:105050002150D2B2012A14D10124456914FA01F277
:1050600015434561012B05D1026814FA01F1114382
:1050700001600DE0026814FA01F132EA01010160F9
:1050800006E04269012313FA01F132EA01014161AC
:1050900070BC704738B5164D401B08D0403809D059
:1050A00040380AD040380BD040380CD00EE0114CBC
:1050B0003B230BE0104C3C2308E0104C3D2305E063
:1050C0000F4C3E2302E00F4C3F23FFE7D2B2120405
:1050D00012F4702252F48072C9B244F821201800F0
:1050E00040B2FFF78BFF31BD00E100E038800440A3
:1050F00000F00F400090044000A0044000B00440C5
:1051000000C0044000D00440010089B2002916D03C
:105110000F490A6852F001020A600E4900220A6033
:1051200080B20E4A106005200B4A10600120086012
:1051300008680006FCD50868400840000860704711
:105140000448016851F080010160704700000000D0
:10515000388004400000044004000440080004407B
:1051600001707047FEB506004E4FA2213800FFF7D0
:10517000F7FF4D4AD2E90001CDE9000100F085F8C2
:105180006946380000F0D9F84848016851F4785170
:1051900001603000C0B2002836D0F6B2012E0AD02D
:1051A000022E0ED0032E12D0042E16D0052E1AD0A9
:1051B000072E1ED023E004240E253D4800F075F98B
:1051C00022E0042414253B4800F06FF91CE004247D
:1051D0001825394800F069F916E004241F253748DE
:1051E00000F063F910E003241825354800F05DF95C
:1051F0000AE003241C25334800F057F904E0032497
:105200001C25304800F051F92F492A00D2B2103243
:1052100032204243022092FBF0F02200D2B2521C14
:1052200090FBF2F0086008684008284A106028489F
:105230008022027014F00704264A1470264B1A6864
:105240001C6854F470241C6009681E24B1FBF4F13E
:10525000090411F4702151F09871204C21601A60FA
:1052600015F01F0555F040051D490D701D490A78C0
:105270009206FBD50A785206FCD500220270087807
:10528000C0F381000328FAD1F7BDF8B56846164986
:105290001022FCF795FF69460020FFF7C3FC05B01C
:1052A00000BD000000E00740D85D001038800440D9
:1052B000AC5C0010C45C0010DC5C0010F45C0010FE
:1052C0000C5D0010245D0010880000208C00002080
:1052D000004006400440064000F001404480044085
:1052E0000540064006400640705D001010B5040001
:1052F0000021621C584802431170200000F0B2F8EF
:105300000128FAD110BD10B504004021621C52489A
:1053100002431170200000F0A5F80428FAD110BD56
:1053200010B504006021621C4B480243117020003C
:1053300000F098F88028FAD110BD38B504000D00AF
:10534000200000F08FF8C0B2012804D0042809D052
:1053500080280FD01DE02878C00602D52000FFF776
:10536000D2FF16E0288810F4837F02D02000FFF7D8
:10537000BDFF0EE0288840F20111084208D120004C
:10538000FFF7B4FF2878C00602D52000FFF7BBFF67
:10539000FFE7B5F9000001280FD0022819D0042832
:1053A00020D008280DD0102813D020281AD080280B
:1053B00018D0B0F5807F08D04BE02000FFF796FFB3
:1053C00047E02000FFF79FFF43E02000FFF7A8FF22
:1053D0003FE02248016831F00401016060780090EC
:1053E00030BF36E069798901A21C1D480243117063
:1053F000A879C000A11C51F08C510870E8784001D8
:10540000A11C51F09451087028790001A11C51F0A1
:1054100090510870B5F90000042801D100200BE07C
:10542000B5F90000202801D1022005E00420A97868
:10543000A21C52F081521170611C51F08151087010
:105440000648016851F0040101606078009030BFA7
:10545000FFE7002032BD00000000901210ED00E0D8
:1054600000001013C078704741F244010144DFF896
:10547000A40001430868C0B27047C9B28904DFF8CC
:10548000982010430160704738B50400DFF8905051
:1054900020790090E378A2786178280000F048F83D
:1054A00021782800FFF7E9FF31BD1CB50400002C6E
:1054B00008D1CE22DFF86C10DFF86C00FFF728FC73
:1054C000AFF3008007200090072301220021DFF8BE
:1054D000500000F02DF82000FFF7F1FA14F1110050
:1054E000FFF7D2FF14F10E010020FFF7E8FB00F0F8
:1054F00005F8DFF838100860002016BD10B5074821
:10550000FEF7EDFE04000648FFF7AEFF401CB4FBBB
:10551000F0F010BD0000301E0000101900400640E1
:1055200000700440145A0010905D001030000020FC
:1055300070B4039C41F244054659B6B2C9B256EA6A
:105540000176D2B2120612F070623243DBB21B0552
:1055500013F470031A43E4B2240414F470242243B5
:10556000425170BC7047FEE77CB50420FFF7FAFD9E
:1055700072B600F0BBF81421012000F007F95FF4C7
:10558000E1210020FEF7F7FE0020FEF7E2FF00F029
:105590008BF8FFF7D5FB62B6334C002301221D21A7
:1055A0002000FFF735FD002301221E212000FFF718
:1055B0002FFD002301220D212000FFF729FD24E00B
:1055C00000206946326888543068401C306030687A
:1055D0000628F5DB69462548006800B200F03EF970
:1055E0006A4623492800FDF78EFA2800FDF794F853
:1055F000060031000020FEF79EFF2800FCF76AFE3F
:10560000300000F076F9002020701A4C2078002835
:10561000FBD069461848006800B200F01FF900206E
:10562000FDF7ABFA05006A4614492800FDF76BFA4E
:10563000134E0020306006E000206946326888542E
:105640003068401C306030680628F5DB69460D483C
:10565000006800B200F002F96A460B492800FDF725
:1056600052FA00203060B2E700F10F400C00002039
:10567000E85D00108802002038000020E05D001086
:10568000340000203C000020E45D001080B52B4871
:10569000FFF76CF940422A4908602A48FFF766F98B
:1056A00040422949086001BD10B5284C0023002262
:1056B0000C212000FFF7ACFC002300220D2120006C
:1056C000FFF7A6FC224C0123002216212000FFF741
:1056D0009FFC0123002217212000FFF799FC1948A5
:1056E000FFF7DAF81548FFF7D7F810BD80B50023AB
:1056F000012201211748FFF78BFC4FF4D26344F2DB
:10570000A27200211448FEF7D1FF01BD0020002045
:1057100006E0002241F82020401C1028F9DB401C44
:10572000102808DA0D4951F82020032A01D0002062
:10573000F3E70B4908607047000000000090034049
:105740003800002000A003403C00002000F00F4083
:1057500000F10F4080F00F40008003404000002027
:105760000C000020012210F01F018A40324940B293
:10577000400941F820207047012210F01F018A40A3
:105780002E4940B2400941F82020704780B52C4A8C
:10579000136853F4000313602A4A13689B089B00A4
:1057A0001360294B49F6404251430200D2B2120124
:1057B00099500100C9B209011944C96851F00101A9
:1057C0000200D2B212011A44D1600100C9B209012B
:1057D0001944896851F003010200D2B212011A443F
:1057E0009160303040B2FFF7BDFF01BD174801683E
:1057F00051F001010160704780B51548016851F012
:1058000001010160FFF742FF3F20FFF7B5FFFFF7FF
:105810007DFF3F20FFF7A6FF01200E49087001BD64
:105820000B48016851F00101016070470A480168A6
:1058300051F001010160704700E100E080E100E00B
:105840003C80044000700340007103400C71034031
:105850001C710340880200203C7103407FB50500A5
:105860000C0068460A2100F049F8002100202800B9
:1058700000B2002803D52A0012B2524200E02A00EA
:10588000002C35D0280000B2002811D10020207053
:105890002EE0100000B20A2390FBF3F603FB160083
:1058A00030306B465854491C12B20A2092FBF0F279
:1058B000100000B20028ECD12DB2002D02D5491CF9
:1058C0000A0000E00A000020605405E06846531A10
:1058D000184410F8010C6054491E6846531A1844C5
:1058E00010F8010C0028F1D1002901D12D206054BD
:1058F0007FBDFBF7CFBFFCF7D7BBFEE70022FDF76C
:105900006DB90000BFF34F8FBFF36F8F00202549A3
:1059100008602548016851F400310160BFF34F8FE2
:10592000BFF36F8F704710B4002020490860BFF3A9
:105930004F8F1F480168C1F34E32C1F3C90343F6CC
:10594000E07010EA421050EA83701A4C2060180090
:10595000431E0028F3D11000421E0028EDD1BFF3F2
:105960004F8F1148016851F480310160BFF34F8FB0
:10597000BFF36F8F10BC704780B50F48016851F4BA
:10598000700101600D484CF2205101804DF6281144
:1059900001804FF4E9700A490880FFF7B3FFFFF771
:1059A000C2FF01BD50EF00E014ED00E084ED00E027
:1059B00080ED00E060EF00E088ED00E00E200540A3
:1059C0000020054000002115110E0D0C0B0B0A0ADA
:1059D0000909090909080808080808080707070746
:1059E00007070707070707070700000030313233B2
:1059F0003435363738396162636465666768696A69
:105A00006B6C6D6E6F707172737475767778797A6E
:105A100000000000463A5C536D6172744361725C31
:105A2000E8BDAFE4BBB65CE4BFA1E6A087352E308D
:105A3000E6ADA3E5BC8FE789885C4C517573657250
:105A40005C73797374656D5C66736C5F636C6F63B4
:105A50006B5F4D4B5635384632342E6300000000E4
:105A6000463A5C536D6172744361725CE8BDAFE4A9
:105A7000BBB65CE4BFA1E6A087352E30E6ADA3E55A
:105A8000BC8FE789885C4C51757365725C73797360
:105A900074656D5C66736C5F636C6F636B5F6D6187
:105AA0006E616765722E630080B50E4801680E480E
:105AB0000068800714D5002912D0D1E90423521CB4
:105AC00073F1FF33C1E904238869002808D0486ACC
:105AD000002802D00120086202E0C869896988476D
:105AE00001BD00008000002010E000E00001010383
:105AF000040404040001020304040404010102017B
:105B00000101010100010103040404040001010377
:105B1000040506060404040404050606040404043B
:105B20000405060706060606060606060A490B4A87
:105B30008A420DD0002004E051F8203042F8203095
:105B4000401C074BB0EB930FF6D30648026001E010
:105B500004480160704700BF000000100000001002
:105B60000000000008ED00E0DF150010F358001001
:105B7000F75800101100000000093D0000800000EF
:105B800000A0064000B0064000C0064000D006401D
:105B900000A00E4000B00E400000400130B450F8AC
:105BA000041B79B10268436802440830DC0744BF33
:105BB000A9F10104E31852F8045B43F8045B091FE0
:105BC000F9D1ECE730BC704710B50749794418317A
:105BD000064C7C44163404E00A68081D11448847CA
:105BE0000146A142F8D110BD500000007000000035
:105BF0007363616E665F733A206261642025632C73
:105C00002025732C206F7220255B20617267756DD3
:105C1000656E74004EF68851CEF20001086840F4BB
:105C200070000860BFF34F8FBFF36F8F4FF00070AD
:105C3000E1EE100A7047000003C5FFFF58020000A4
:105C4000340000200000000055FFFFFF340000007A
:105C500018FFFFFF000000200000000000F00DF81A
:105C6000002801D0FFF7B0FFAFF300800020AFF3B2
:105C70000080FFF779FC00F002F80120704700F087
:105C800001B8000007463846FCF7ECFAFBE70000D5
:105C900072B6034880470348804762B6024800470F
:105CA000795900102D5B00109D5D001080000100EF
:105CB00000000600000000030800010000030001CE
:105CC0000105000080000100000003000000000446
:105CD0001400010000030001020700008000010021
:105CE0000000030000000004180001000003000190
:105CF0000207000080000100000003000000000413
:105D00001F000100000300010309000080000100E2
:105D10000000030000000003180001000003000160
:105D200003090000800001000000060000000003DD
:105D30001C00010000030001030900006D6F646591
:105D4000203C206B4D63674D6F646553544F50008A
